:020000040000fa
:080000000002040000000000f2
:020000040000fa
:10040000afc020000e7f22000e0188000000000017
:10041000000020000000e000020032000001200087
:10042000200288000c000700204423000100200067
:100430001f000700000020000000e0000200320062
:1004400000000200000000008e33020000000000e7
:100450000040da000000fe004440a90000e6210050
:100460000000e0000300320000002000a00188002e
:100470004440a80000000600f03fb1000180b10038
:1004800006003500ee03090000000000403fb10007
:100490000180b100fbff3d001000b000203fb00024
:1004a0000200350000800900000000000000060086
:1004b00091018800800078000000eb0015003700f3
:1004c000e280400032a0b4009101ba00e280400016
:1004d00032a0b4009102ba00e280400032a0b40021
:1004e0000002eb00472bde00f507b200602ce100b4
:1004f00004003a000059eb008301e900fdff3e00d3
:10050000040037006128e100010032000082eb00a6
:10051000040007001101ba000200e000e8ff3a0001
:10052000000006003159ba008301e9000c003200d6
:100530002159ba008301e900080032000400e000fc
:1005400003003a00e280400032a0b400f5ff37001b
:1005500011d9ba008301e900faff3a008100e800ee
:10056000e180400032a0b40000000600000000005e
:10057000000000000000000000000000000000007b
:10058000000000000000000000000000000000006b
:10059000000000000000000000000000000000005b
:1005a000000000000000000000000000000000004b
:1005b000000000000000000000000000000000003b
:1005c0000000000000000000000000000040da0011
:1005d0000000fe00f4ff2f00d900370014002000b7
:1005e000d70037004f89de0082017800ef00370026
:1005f000889fbe008a9fbe008c1f7800fb0007000a
:100600000201330003866c006450e10024003200d4
:100610006420e100270032006150e1002200320036
:100620006120e100210032008b854200eb07b10020
:100630000134b800003ab8000804420089844a0036
:10064000013ab8000030b8008880400009014a0033
:10065000040033000000400081804800020149008e
:100660008b05e900c909dd0083017000010032003b
:1006700013002000c814de004814dd004709de0026
:100680001200b200c808de0008847000ef00070006
:1006900001f0a1000cf0a70001f0a000e400370079
:1006a0006120e100e60032000801be000200be0049
:1006b000f7ff37006150e100fcff3a00e00037002f
:1006c000889fbe008a9fbe008c1f7800c70007006d
:1006d000ce00330003866c006450e1002e0032002f
:1006e0006420e100330032006150e1002f0032004d
:1006f0006120e1003100320085855500eb07b00034
:100700000900200008042000050037000804440008
:1007100089844c000a0031000603430087834b00a4
:100720000001530081815b00f8ff33000203be002b
:100730000800a0000804440089844c00f6ff39003a
:10074000c639dd0083017300010032001300200070
:100750008904d1000884d3000998a3000500320061
:100760000800a7000300a0008904d1000884d3007a
:100770008b05e8008904d1000884d3000001eb0058
:100780000281d200b100070001f0a1000cf0a70027
:1007900001f0a000a60037006420e100a8003200ac
:1007a0000801be000200be00f7ff37006120e10033
:1007b000a30032006000b800f3ff37000000200003
:1007c00001f82700f0ff370003f0a200889fbe0069
:1007d0008a9fbe008c1f7800840007008b003300c6
:1007e0006450e1004f0032006420e100520032000a
:1007f00003826c0007003b000905d0000306d0000f
:10080000820f54000c065d00020039000200320025
:1008100089017800030678008582550004003d00b8
:100820000003fd008103fd008502ea008b85420084
:10083000840f720002003b0060001000e08018008e
:100840006011b8000005eb007a28e1000a003900c9
:1008500006007800c75ddd00f707b20087807500ed
:100860002d003700828171000a0178006105600067
:100870008180d1000080d3008502e900f9ff3b00b0
:10088000060440008784480002003b006004140016
:10089000e0841c000988a300070032008a817100ef
:1008a00082817100610164008904d1000884d30051
:1008b0008b05e800170037000978a30013003a0001
:1008c0000b00e000130034008b05e900080444002d
:1008d00089844c000a4474000978a3000d003a0092
:1008e0000b00e000070034008b05e9000804440019
:1008f00089844c0001003a000b0020000978a30015
:10090000f7ff32000001eb00020037008281710026
:100910000a0178004d0007000cf0a70001f0a000cc
:10092000430037006420e10002003a00838f6c002e
:10093000430033000801be000200be003c00370047
:10094000889fbe008a9fbe00841f78002700070092
:100950004f00780011003300f0ff2f00838f6c00f0
:1009600006003b00040565000a00a70008003700e8
:1009700009f0a6001000200008003700820f540084
:10098000838f5c00030039001000200001003e004e
:100990000000200009f0a7000000ea004f05be009b
:1009a0004f04be000000e00000000600881f780031
:1009b000030478000300e00007003d006000100021
:1009c000e080180060011900e081190002003b007e
:1009d00001f02d00030037004200070008f0a700d7
:1009e00001f0a0004f047800000006000004be00e3
:1009f0006b0007000003be000405be000200be003d
:100a000067000700844f7500000006000200be006a
:100a10006450e100050036006420e1000200360069
:100a20000968a30001003a000800be000160a000b0
:100a30004f0678004f05be004f04be0000000600c0
:100a4000f0ff2f00f1ff2700f9ff370081002000a1
:100a5000618055000b003d000b00200061fe2f005f
:100a60000100e1001d003400828171006101640019
:100a70008904d1000884d3000000e800faff3a009e
:100a8000710020006100640003007000020060003b
:100a90000900320061044400e0844c000988a5008c
:100aa000050032008b05e8006808e10002003a000a
:100ab0008904d1000884d300f20f20000258e1001d
:100ac00005003d00c75ddd00f907b20089807500b3
:100ad00008007800000006000bf827008b00780063
:100ae00000000500889fbe008a9fbe000082700043
:100af0000402710004827100260032000004be006e
:100b00000200be006011b8006b09200095022000b1
:100b10000182cf000a0039000541b1000082cf00f8
:100b2000070039000541b1000982cf0004003900f7
:100b30000541b1000882cf00010039000541b10034
:100b400005425200120032000a003b00828171000f
:100b5000610164008100d1000080d3008984d3004a
:100b60000884d3008b05e8000442e800f7ff3a0050
:100b7000070037000804440089844c000000480046
:100b8000818048008b05e9000442e900f9ff3a0042
:100b9000aeff07004f05be004f04be000000060078
:100ba000c70ade00f107b200f50fb20008003200fc
:100bb000e1cf4200020032000170a00024000500d5
:100bc000810f700001003200040805004400050098
:100bd000810f700002003a00140005008502e90050
:100be0000000400081c04800fcff3b000170a000f5
:100bf000240005000002780002003700315a780016
:100c00000201e900e00f5100fcff3a00000006007d
:100c10000002780002003700015a78000201e90062
:100c2000e00f5100fcff3a00000006000400fa004b
:100c3000000f7800110798000002eb0034088800cc
:100c40001e029000640888001e0278008408880054
:100c50000080fa00000006000400fa00000f78008f
:100c6000110798000002eb00540888001e02900053
:100c7000740888001e027800940888000080fa003a
:100c8000000006000200fa00000f78008660a9004c
:100c90001e027800044278006742620067426200e8
:100ca000674262000482fb00670262004c22dd00a2
:100cb00066058000f5ff280085026300048272004b
:100cc000640588009e027800688262004322de008c
:100cd00004427800614262000482fb00610262000b
:100ce0004322dd00b604800075ff2f0085026300fb
:100cf00004827200b40488000080fa00000006003c
:100d00000200fa00000f78001e0278003408880004
:100d10000080fa00000006000200fa00000f7800d0
:100d20001e027800540888000080fa0000000600c7
:100d30000400fa00000f7800110798001e029000ce
:100d4000241088001e027800341088000080fa0009
:100d5000000006000000fa000000000034108000cf
:100d600061026200e00f5200fcff3a003410800084
:100d700062026200e00f5200f8ff3a003410800077
:100d800064026200e00f5200f4ff3a003410800069
:100d900068026200e00f5200f0ff3a003410800059
:100da00070026200e00f5200ecff3a004510800034
:100db0000400240004826200e00f5200e7ff3a00c2
:100dc0000080fa00000006000000fa000602a800f9
:100dd0000080fa00000006000200fa00004f7800d0
:100de0009e4278000582fb001410880045108000a8
:100df0000408200004826200e00f5200020032006a
:100e000000c2eb00010037000042eb000440780014
:100e10000080fa00000006000000fa000642a80068
:100e20000080fa00000006000800fa001007980091
:100e300021079800320798000002eb00040f7800a9
:100e4000270037000662a800080037009e027800dd
:100e50003e029000848f5200020031001e0fe80015
:100e6000020037001e029000210037002300070017
:100e700000427800e04f5200f4ff32000002eb0025
:100e8000040f78000410800004427800ae02900045
:100e9000844a78002e0290000402e800240798009b
:100ea0001e0290000402e900140798001e02900040
:100eb000e00f520003003a0006a2a8000682a80034
:100ec0000300370006a2a9000682a8000000000067
:100ed0003410800070026200e00f5200fcff3a0004
:100ee0001e029000e00f5200d6ff3a000002eb0015
:100ef000040078000080fa00000006000000fa00fc
:100f0000441080000402d100614262000440780075
:080f10000080fa000000060059
:020000040000fa
:020000040001f9
:0457f00023ff000093
:020000040000fa
:020000040001f9
:0457f400c0fc0000f5
:020000040000fa
:020000040001f9
:0457f800af090000f5
:020000040000fa
:020000040001f9
:0457fc00643d000008
:020000040000fa
:10000800e6020000e6020000e6020000e602000048
:10001800e6020000e6020000e6020000e602000038
:10002800e6020000e6020000e6020000e602000028
:10003800e6020000e6020000e6020000e602000018
:10004800e6020000e6020000e6020000e602000008
:10005800e6020000e6020000e6020000e6020000f8
:10006800e6020000e6020000e6020000222c000082
:10007800e6020000e6020000e6020000e6020000d8
:10008800e6020000e6020000e6020000e6020000c8
:10009800e6020000e6020000e6020000e6020000b8
:1000a800e6020000e6020000e6020000e6020000a8
:1000b800e6020000e6020000e6020000e602000098
:1000c800e6020000e6020000e6020000e602000088
:1000d800e6020000e6020000e6020000e602000078
:1000e800e6020000e6020000e6020000e602000068
:1000f800e6020000e6020000e6020000e602000058
:10010800e6020000e6020000e6020000e602000047
:10011800e6020000e6020000e6020000e602000037
:10012800e6020000e6020000e6020000e602000027
:10013800e6020000e6020000e6020000e602000017
:10014800e6020000e6020000e6020000e602000007
:10015800e6020000e6020000e6020000e6020000f7
:10016800e6020000e6020000e6020000e6020000e7
:10017800e6020000e6020000e6020000e6020000d7
:10018800e6020000e6020000e6020000e6020000c7
:10019800e6020000e6020000e6020000e6020000b7
:1001a800e6020000e6020000e6020000e6020000a7
:1001b800e6020000e6020000e6020000e602000097
:1001c800e6020000e6020000e6020000e602000087
:1001d800e6020000e6020000e6020000e602000077
:1001e800e6020000e6020000e6020000e602000067
:0801f800e6020000e60200002f
:020000040000fa
:10020800e6020000e6020000e6020000e602000046
:10021800e6020000e6020000e6020000e602000036
:10022800e6020000e6020000e6020000e602000026
:10023800e6020000e6020000e6020000e602000016
:10024800e6020000e6020000e6020000e602000006
:10025800e6020000e6020000e6020000e6020000f6
:10026800e6020000e6020000e6020000222c000080
:10027800e6020000e6020000e6020000e6020000d6
:10028800e6020000e6020000e6020000e6020000c6
:10029800e6020000e6020000e6020000e6020000b6
:1002a800e6020000e6020000e6020000e6020000a6
:1002b800e6020000e6020000e6020000e602000096
:1002c800e6020000e6020000e6020000e602000086
:1002d800e6020000e6020000e6020000e602000076
:1002e800e6020000e6020000e6020000e602000066
:1002f800e6020000e6020000e6020000e602000056
:10030800e6020000e6020000e6020000e602000045
:10031800e6020000e6020000e6020000e602000035
:10032800e6020000e6020000e6020000e602000025
:10033800e6020000e6020000e6020000e602000015
:10034800e6020000e6020000e6020000e602000005
:10035800e6020000e6020000e6020000e6020000f5
:10036800e6020000e6020000e6020000e6020000e5
:10037800e6020000e6020000e6020000e6020000d5
:10038800e6020000e6020000e6020000e6020000c5
:10039800e6020000e6020000e6020000e6020000b5
:1003a800e6020000e6020000e6020000e6020000a5
:1003b800e6020000e6020000e6020000e602000095
:1003c800e6020000e6020000e6020000e602000085
:1003d800e6020000e6020000e6020000e602000075
:1003e800e6020000e6020000e6020000e602000065
:0803f800e6020000e60200002d
:020000040000fa
:100f180000040000000000000404000000000000bd
:100f28000902000010000000130400002200000065
:100f38000e0400006e00000016040000a600000069
:100f480013040000fe000000030200004a01000034
:100f580007050000500100000705000073010000ac
:100f68000f030000960100000e040000c3010000fa
:100f780005050000fb010000080300001402000042
:100f8800040400002c0200000c0400003c020000d5
:100f98000e0400006c02000009040000a402000016
:100fa8000e040000c80200000f0400000003000047
:100fb800110400003c0300000e0400008003000040
:100fc8000f040000b80300000f040000f403000041
:100fd8000e040000300400000e0400006804000045
:100fe80004040000a004000005050000b00400008f
:100ff8000e040000c90400000e03000001050000f3
:101008000e0400002b0500000c040000630500001e
:101018001805000093050000130400000b060000eb
:101028000f0400005706000010040000930600009b
:1010380011040000d30600000c040000170700008c
:101048000c040000470700001204000077070000a6
:1010580010040000bf07000009040000ff0700009b
:1010680009050000230800001004000050080000d3
:101078000c0400009008000016040000c0080000de
:101088001104000018090000140400005c090000a5
:101098000d040000ac09000014050000e009000080
:1010a8000f040000440a00000d040000800a00003c
:1010b80010040000b40a000010040000f40a000044
:1010c80012040000340b00001c0400007c0b00001c
:1010d80012040000ec0b000011040000340c0000a6
:1010e8000d040000780c000006050000ac0c0000a0
:1010f8000c040000ca0c000006050000fa0c0000f1
:101108000f030000180d00000d050000450d00003c
:101118000a030000860d00000c040000a40d000066
:101128000e040000d40d00000c0400000c0e00009a
:101138000e0400003c0e00000d040000740e0000b8
:101148000b040000a80e00000f050000d40e0000dc
:101158000d0400001f0f000003040000530f0000df
:10116800070500005f0f00000d040000820f00005b
:1011780003040000b60f000017040000c20f0000af
:101188000d0400001e1000000e04000052100000a4
:101198000e0500008a1000000e050000d0100000a7
:1011a80009040000161100000a0400003a110000aa
:1011b80009040000621100000d04000086110000ff
:1011c8000f040000ba11000018040000f611000016
:1011d8000e04000056120000100500008e120000d8
:1011e8000b040000de1200000a0500000a130000cc
:1011f800020500003c1300000a0500004613000029
:101208000e030000781300000e030000a213000074
:101218008080000080800000ffff0000ff0f0000ba
:10122800007f00007f000000183c00003c18000010
:101238008080000080000000000000008080000026
:10124800801f00007f3f000000000000001f00001a
:101258007f3f0000000000000000000000000000c8
:101268000080000080000000000000000000000076
:10127800808000000000000000000000c0c00000e6
:10128800c0c00000c0fc0000ffcf0000c0c00000cc
:10129800c0c00000ffff0000c3c00000c0c00000c5
:1012a8006060000060600000e0ff00007f610000f7
:1012b8006060000060f00000ff7f000060600000d8
:1012c800606000000000000000000000383f0000df
:1012d8001f00000000000000003e00003f07000063
:1012e80000000000000000000000000000000000f6
:1012f8000000000000000000e0e000000000000026
:10130800000000000000000078fc0000fe860000dd
:1013180007070000ffff00000307000007060000a2
:1013280006000000000100000103000003070000a0
:10133800ffff00000e0e00001cfc0000f8f000008b
:10134800070600000e0e00000e0c00007f7f000054
:101358000e0e000007070000030100000000000057
:101368008080000080800000000000000000000075
:101378000000000000000000000000008080000065
:101388000000000000000000fcff00000701000052
:10139800010100000fff0000fc00000000800000b9
:1013a800e0f000003c0f0000030000000000000017
:1013b80000000000030f00001e18000018180000ad
:1013c8001f8f0000e3f800003e0f000003f8000044
:1013d800fe0f000003030000031e0000fef80000db
:1013e8000000000000000000203800001e07000078
:1013f8000100000000000000000700001f3c000082
:1014080030300000303e00001f07000000000000e0
:101418000000000000800000808000008080000044
:1014280000000000000000000000000000000000b4
:1014380000000000007c0000ffff0000c303000064
:1014480001830000c3ff00007f3c00000000000093
:101458000000000000000000e0f00000f83c000080
:101468000f0f00000f1f00003f790000f0e00000a0
:1014780080800000e0f800007818000000070000f5
:101488000f1f00001c3800003838000038380000f2
:10149800381c00001f0f00000f1f00003d3800001f
:1014a8003020000080800000801f00007f3f000087
:1014b80000000000000000008080000080000000a4
:1014c800f0fc0000ff0f000003000000ffff000019
:1014d800ff00000000000000000300003fff0000c4
:1014e800f8c0000000000000000000000003000039
:1014f8000707000004800000808000000000000052
:1015080000000000000300000fff0000fcf00000d6
:10151800000000000000000000ff0000ffff0000c6
:1015280000000000c0fc0000ff3f000003040000b2
:101538000707000003000000000000000000000092
:101548000000000000000000c0c00000c000000053
:10155800000000000000000000180000181800003b
:1015680018380000f0f700007ff70000f03800009e
:1015780018180000181c00000000000004060000f5
:101588000f07000001000000010700000f0600001f
:10159800040000000000000000000000000000003f
:1015a8000000000000000000000000000000000033
:1015b80000000000000000000000000000f0000033
:1015c800f00000000000000000000000000c000017
:1015d8000c0c00000c0c00000cff0000ff0c0000bd
:1015e8000c0c00000c0c00000c00000000000000b7
:1015f80000000000000300000300000000000000dd
:1016080000000000000000000000000000000000d2
:1016180000000000000000000000000000000000c2
:101628000000000000f80000fc7c00000c03000033
:10163800030100000000000000000000000000009e
:101648000000000000000000000000000000000092
:1016580000000000000000007070000070700000c2
:1016680070700000707000000000000000000000b2
:101678000000000000000000000000000000000062
:10168800183c00003c1800000000000000000000aa
:1016980000000000000000000080000080800000c2
:1016a800000000000000000000000000e0f800005a
:1016b8007e1f0000070000000000000080e000001e
:1016c800fc7f00000f030000000000000000000085
:1016d800303c00003f0f0000010000000000000047
:1016e80000000000000000000000000000000000f2
:1016f8008080000080800000800000000000000062
:1017080000000000e0fc0000fe1f000007030000ce
:1017180001010000030700001ffe0000f8e00000c0
:10172800ffff0000ff0000000000000000000000b4
:101738000000000000ff0000ffff0000000700009d
:101748000f1e00003c38000030300000383c00001c
:101758001f0f00000700000000000000000000004c
:10176800000000008080000080100000381c00008d
:101778001e0f000007ff0000ffff00000000000030
:101788000000000000000000ffff0000ff00000054
:101798000000000000000000003f00003f3f000084
:1017a8000000000000000000808000008080000031
:1017b8008000000000000000000000000206000099
:1017c80007030000030300000103000003070000f3
:1017d800fffe0000fc000000000000000000000008
:1017e80080e00000f07800003c1f000007030000c4
:1017f80000000000383c00003e3f00003b3900007c
:101808003838000038380000383800003838000010
:1018180000000000000000008080000080800000c0
:1018280080800000000000000000000000020000ae
:101838000707000003030000030100000103000084
:1018480003870000fffe00007c000000000000008d
:101858000000000006060000060e00000e0f000043
:101868000f190000f8f00000e01c00001838000014
:1018780038380000383000003838000038180000c8
:101888001c0f00000f030000000000000000000013
:101898000000000000000000000000008080000040
:1018a8008080000000000000000000000000000030
:1018b8000000000080e00000f03c00001e0700006f
:1018c800ffff0000ff00000000000000c0f0000063
:1018d800f8de0000cfc70000c1c00000c0c0000093
:1018e800c0ff0000ffff0000c0c00000c0010000f2
:1018f80001010000010100000101000001010000d8
:10190800010100003f3f00003f010000010100000d
:10191800008000008080000080800000808000003f
:10192800808000008080000000000000f8ff0000b8
:10193800ff0300000303000003030000030300008b
:101948000303000000000000030700000707000071
:101958000303000007070000070600001efc000044
:10196800fcf000001c180000383800003830000077
:1019780038380000381800001e0f00000703000068
:1019880000000000000000000000000000800000cf
:10199800808000008080000080000000008000003f
:1019a800f0fc00007e0e00000703000003030000a7
:1019b800030100000103000000000000ffff000019
:1019c800ff0c0000060600000303000003070000e8
:1019d800070e0000fefc0000f0000000070f0000ea
:1019e8001e1c00003838000030380000383800006d
:1019f8001c1f00000f030000808000008080000092
:101a080080800000808000008080000080800000ce
:101a1800808000008003000003030000030300002f
:101a2800030300000303000083e30000fb7f0000c2
:101a38001f0300000000000000000000000000007c
:101a4800c0f00000fe3f0000070100000000000099
:101a58000000000000000000303c00003f0f0000c4
:101a6800030000000000000000000000000000006b
:101a7800000000000000000080800000808000005e
:101a8800808000000000000000000000007c0000d2
:101a9800feff00008303000003030000038300002f
:101aa800fffe00007c000000c0f00000f93b0000d1
:101ab8001f0f0000060e00000f1f000039f0000085
:101ac800e0c00000070f00001f1c000038380000ad
:101ad80030300000383800001c1f00000f030000e1
:101ae80000000000000000008080000080800000ee
:101af800800000000000000000000000f8fe000068
:101b0800ff070000030300000103000003070000b3
:101b18000ffe0000fce00000010700000f0e0000af
:101b28001c180000181800001c0c000086ff00009c
:101b3800ff3f00000000000030300000303000009f
:101b4800383800001c1e00000f07000001000000cc
:101b58000000000000000000c0e00000e0c000003d
:101b68000001000001000000183c00003c180000c3
:101b7800000000000000000000000000c0e00000bd
:101b8800e0c00000000000000101000000000000ab
:101b9800f8fc00007c0c00000303000001000000ba
:101ba800000000000000000000000000000000002d
:101bb800000000000000000000000000000000001d
:101bc80000000000000000000080000080c000004d
:101bd800c060000070300000381800001c3e000093
:101be8003677000063630000c1c00000c0800000b9
:101bf800800000000000000000000000000000005d
:101c080000000000000000000101000003030000c4
:101c180007000000000000000000000000000000b5
:101c280000000000000000000000000000c00000ec
:101c3800c0c00000c0c00000c0c00000c0c000009c
:101c4800c0c00000c0c00000c0300000303000003c
:101c580030300000303000003030000030300000fc
:101c680030300000300000000000000000000000dc
:101c7800000000000000000000000000000000005c
:101c8800003800003070000060c00000c080000014
:101c980080000000000000000000000000000000bc
:101ca8000080000080c00000c0c100006363000025
:101cb800773600003e1c00001807000003030000f0
:101cc800010100000000000000000000000000000a
:101cd80000000000000000000000000080800000fc
:101ce80080800000808000000000000000030000e9
:101cf8000703000003030000030300000383000040
:101d0800fffe00007c0000000000000000700000e2
:101d18007c7e00000f0700000301000000000000a7
:101d280000000000183c00003c1800000000000003
:101d3800000000000000000000000000000000009b
:101d4800000000000000000080800000808000008b
:101d580080800000800000000000000000000000fb
:101d68000000000000000000c0f00000781c000027
:101d78000e06000083c30000c3e10000616100009b
:101d880061610000e1c30000030700000e1c0000b1
:101d9800f8f0000080fe0000ff870000000000004f
:101da80000fe0000ffff000001000000000000002e
:101db80000e00000ffff000000000000000000003d
:101dc800e0ff00003f0100000f1f00003870000016
:101dd800e0c00000c1c300008786000086860000be
:101de80083830000c1c30000c70600000607000087
:101df80003010000000000000000000000000000d7
:101e080000000000000100000101000001010000c5
:101e180001010000010000000000000000000000b7
:101e280000000000000000000000000000000000aa
:101e3800000000000080000080800000000000001a
:101e4800000000000000000000000000000000008a
:101e58000000000000c00000f0fe00001f030000aa
:101e68001ffe0000f0c0000000000000000000009d
:101e78000000000000c00000f0fe00003f37000036
:101e88003030000030300000303700003ffe0000e6
:101e9800f0c0000000000000303e00003f0f0000ce
:101ea8000100000000000000000000000000000029
:101eb80000000000010f00003f3e000030800000dd
:101ec800808000008080000080800000808000000a
:101ed800800000000000000000000000ffff00007c
:101ee800ff010000010100000101000003030000e0
:101ef80007ff0000fe7c000000ff0000ffff00005d
:101f08000606000006060000060e00000f0f00007f
:101f180019f90000f0e000003f3f00003f300000ea
:101f2800303000003030000038380000381e000023
:101f38001f0f000003000000000000000000000068
:101f48000000000080800000808000008080000089
:101f58008000000000c00000f0fc00007e1e0000b1
:101f68000703000003030000010100000303000051
:101f780003070000017f0000ffff0000c000000011
:101f88000000000000000000000000000000000049
:101f98000000000000000000030700000f1e000002
:101fa8001c3800003830000030300000383800009d
:101fb8003818000000800000808000008080000049
:101fc8008080000080800000800000000000000089
:101fd8000000000000000000ffff0000ff010000fb
:101fe80001010000010100000303000003070000d5
:101ff8000e7e0000fcf00000c0ff0000ffff0000a4
:1020080000000000000000000000000000000000c8
:1020180000000000c0ff0000ff7f00003f3f0000fd
:102028003f30000030300000303800003838000001
:102038001c1c00000f0f00000701000000800000ba
:102048008080000080800000808000008080000088
:102058008080000080ff0000ffff000001010000f9
:1020680001010000010100000101000001ff000062
:10207800ffff000006060000060600000606000036
:1020880006060000003f00003f3f0000303000001f
:102098003030000030300000303000003080000068
:1020a8008080000080800000808000008080000028
:1020b8008080000080ff0000ffff00000101000099
:1020c80001010000010100000101000001ff000002
:1020d800ffff00000c0c00000c0c00000c0c0000b2
:1020e8000c0c0000003f00003f3f00000000000013
:1020f80000000000000000000000000000000000d8
:1021080000000000000000000000000080800000c7
:1021180080800000808000008080000000000000b7
:1021280000c00000f0f800007c1e00000707000057
:102138000303000003010000010100000303000085
:1021480003070000017f0000ffff0000c00000003f
:102158000000000000000000000c00000c0c000053
:102168000c0c0000fcfc0000fc0000000107000053
:102178000f1e00001c180000383800003030000026
:1021880030300000383800003f1f00001f8000007a
:102198008080000000000000000000000000000037
:1021a80000000000000000008080000080ff0000a8
:1021b800ffff000000000000000000000000000019
:1021c8000000000000000000ffff0000ffff00000b
:1021d800ffff0000060600000606000006060000d5
:1021e8000606000006060000ffff0000ff3f000093
:1021f8003f3f000000000000000000000000000059
:1022080000000000000000003f3f00003f80000089
:1022180080800000808000008080000080800000b6
:102228000101000001ff0000ffff000001010000a4
:102238000100000000000000ffff0000ff00000098
:102248000000000030300000303f00003f3f000039
:1022580030300000300000000000000000000000e6
:1022680000800000808000000000000000000000e6
:1022780000000000ffff0000ff0000000000000059
:102288000000000000ff0000ffff00000000000049
:102298000000000000000000ffff0000ff0e00002b
:1022a8000c0c00000c0e00000707000003000000e3
:1022b8008080000080000000000000000000000096
:1022c8000000000000000000008000008080000086
:1022d800ffff0000ff00000000800000c0e00000d9
:1022e800f07800001c0e0000070300000100000049
:1022f800ffff0000ff0c00000e0700001f3f00005a
:10230800f8f00000c080000000000000000000009d
:102318003f3f00003f0000000000000000000000f8
:1023280000010000030f00001e3c000038200000e0
:102338008080000080000000000000000000000015
:102348000000000000000000ffff0000ff00000088
:102358000000000000000000000000000000000075
:10236800ffff0000ff000000000000000000000068
:1023780000000000000000003f3f00003f30000068
:1023880030300000303000003030000030300000c5
:1023980080800000808000008000000000000000b5
:1023a8000000000000000000000000000000000025
:1023b800008000008080000080800000ffff000097
:1023c800ff0f00007ffc0000e0000000000000009c
:1023d800000000000000000000e00000fc7f00009a
:1023e8000fff0000ffff0000ffff0000ff000000dc
:1023f800000300001fff0000f8c0000000000000fc
:10240800c0f800007f0f00000100000000ff00007e
:10241800ffff00003f3f00003f00000000000000f9
:1024280000000000073f00003f3f00001f030000be
:102438000000000000000000003f00003f3f0000d7
:102448008080000080800000000000000000000084
:102458000000000000000000000000008080000074
:1024680080ff0000ffff00000f3e0000fcf00000ae
:10247800c0000000000000000000000000ff000095
:10248800ffff0000ffff0000ff0000000000000049
:10249800030700001f7c0000f8e000008000000037
:1024a800ffff0000ff3f00003f3f0000000000006a
:1024b800000000000000000000010000070f0000fd
:1024c8003e3f00003f3f0000000000000000000009
:1024d80000000000808000008080000080800000f4
:1024e8008000000000000000000000000000000064
:1024f800c0f80000fc7e00000f0700000303000086
:10250800030100000101000003030000070f0000a1
:102518007efc0000f0c000007fff0000ffc000004c
:1025280000000000000000000000000000000000a3
:102538000000000000000000c0ff0000ff7f000056
:1025480000010000070f00001e1c000038380000c2
:102558003030000030300000381800001c1e000029
:102568000f0700000100000080800000808000004c
:1025780080800000808000008000000000000000d3
:1025880000ff0000ffff0000010100000103000040
:10259800030300000fff0000fef80000ffff00002b
:1025a800ff180000181800001c1c00001c0f000079
:1025b80007070000013f00003f3f00000000000047
:1025c8000000000000000000000000000000000003
:1025d80000000000000000000000000080800000f3
:1025e8008080000080800000800000000000000063
:1025f8000000000000000000c0f80000fc7e0000a1
:102608000f070000030300000301000001010000a0
:1026180003030000070f00007efc0000f0c000006c
:102628007fff0000ffc00000000000000000000065
:102638000000000000000000000000000000000092
:10264800c0ff0000ff7f000000010000070f00002e
:102658001e1c000038380000303000003030000008
:10266800f8f80000dc9e00000f07000001000000e1
:102678000000000000000000000000000000000052
:102688000000000000000000000100000307000037
:102698000706000004000000808000008080000021
:1026a8008080000080800000808000000000000022
:1026b8000000000000ff0000ffff00000101000013
:1026c800010100000303000003870000fffe000073
:1026d800f8000000ffff0000ff0c00000c0c0000d9
:1026e8000c3e0000fefe0000e78300000100000031
:1026f800003f00003f3f0000000000000000000015
:1027080000000000030700001f3e00003820000002
:1027180000000000000000008080000080800000b1
:10272800808000000000000000fc0000feff0000a8
:1027380087030000030100000103000003030000f9
:102748000701000000010000030700000707000060
:102758000e0e00001c3c0000f8f00000e01800001d
:1027680038380000383000003030000038380000b9
:102778001c1f00000f030000808000008080000004
:102788008080000080800000808000008080000041
:10279800808000008080000001010000010100002d
:1027a8000101000001ff0000ffff0000010100001f
:1027b800010100000101000000000000000000000d
:1027c8000000000000ff0000ffff00000000000004
:1027d80000000000000000000000000000000000f1
:1027e80000000000003f00003f3f00000000000024
:1027f8000000000000000000808000008000000051
:1028080000000000000000000000000000000000c0
:102818000080000080800000ffff0000ff00000033
:1028280000000000000000000000000000000000a0
:1028380000ff0000ffff0000ffff0000ff00000096
:102848000000000000000000000000000000000080
:1028580000ff0000ffff0000010700000f1e00003e
:102868001c3800003830000030380000381c0000e8
:102878001e0f00000701000080800000800000009b
:102888000000000000000000000000000000000040
:10289800000000000080000080800000010f0000a0
:1028a8007ffe0000f0800000000000000000000033
:1028b8000000000080f00000fe7f00000f01000013
:1028c80000000000000300001fff0000fce0000003
:1028d80000000000e0fc0000ff1f000003000000f3
:1028e80000000000000000000000000000000000e0
:1028f800073f00003e3e00003f07000000000000c8
:10290800000000000000000080800000800000003f
:1029180000000000000000000000000000000000af
:10292800808000008080000000000000000000009f
:10293800000000000000000000800000808000000f
:10294800033f0000fffc0000c00000000000000082
:1029580000000000c0fc0000ff1f00000fff000087
:10296800fcc00000000000000000000000c00000e3
:10297800fcff00003f03000000000000011f0000f2
:10298800fffe0000e0000000e0fc0000ff0f000078
:1029980001000000000000000f7f0000fee00000c2
:1029a80000800000f8ff00003f0300000000000066
:1029b8000000000000000000011f00003f38000078
:1029c8003f0f0000000000000000000000000000b1
:1029d80000000000033f00003e3f00003f030000ee
:1029e800000000000000000080800000800000005f
:1029f80000000000000000000000000000000000cf
:102a0800000000000080000080800000000300003b
:102a1800070f00003e780000f0c000008080000032
:102a2800c0f00000783c00000f0700000300000021
:102a3800000000000000000080e00000f93f0000f6
:102a48001f1f00007ff90000e0c000000000000028
:102a580000000000203800003c1f000007030000b1
:102a6800000000000000000000000000030f00004c
:102a78001f3c00003820000080800000800000001b
:102a8800000000000000000000000000000000003e
:102a9800000000008080000080000000030f00009c
:102aa8003ffc0000f08000000000000000c00000b3
:102ab800f0fc00003f0f00000300000000000000d1
:102ac80000000000000300000ffe0000f8ff0000f7
:102ad8000f030000000000000000000000000000dc
:102ae8000000000000000000000000003f3f000060
:102af8003f0000000000000000000000000000008f
:102b080080800000808000008080000080800000bd
:102b1800808000008080000080010000010100002a
:102b28000101000001010000c1f10000fd3f0000ab
:102b38000f0300000000000080e00000f87e0000a5
:102b48001f0f000003000000000000000038000014
:102b58003e3f0000373100003030000030300000c8
:102b6800303000003030000080800000808000009d
:102b780080800000ffff0000ff010000010100004d
:102b8800ffff0000ff00000000000000ffff000042
:102b9800ff00000000000000070700000706000013
:102ba8000606000080800000800000000000000091
:102bb8000000000000000000000000000107000005
:102bc8003ffe0000f0c00000000000000000000010
:102bd800000000000000000000000000071f0000c7
:102be8007ef80000c00000000000000000000000a7
:102bf8000000000000000000000300000f3f00007c
:102c08003c20000080800000808000008080000060
:102c18000101000001ff0000ffff000000000000ac
:102c280000ff0000ffff00000000000000ff0000a0
:102c3800ffff000006060000060700000707000067
:102c480000000000000000000000000000800000fc
:102c580080000000000000000000000000000000ec
:102c680000000000c0f000003c0f0000030f00004f
:102c78003ef00000c000000000000000101c000032
:102c88001f07000001000000000000000000000015
:102c9800000700001f1c00001000000000000000da
:102ca800000000000000000000000000000000001c
:102cb800000000000000000000000000000000000c
:102cc80000000000000000000000000000000000fc
:102cd80000000000000000000000000000000000ec
:102ce80000000000000000000000000000000000dc
:102cf80000000000000000000000000000000000cc
:102d08000006000006060000060600000606000091
:102d18000606000006060000060600000000000087
:102d2800008000008080000080000000000000009b
:102d38003cff0000e7c3000081810000c3e70000fa
:102d4800ff3c00000000000000010000010100003d
:102d5800010000000000000000000000000000006a
:102d6800000000000000000000000000000000005b
:102d780000c00000c0e00000e060000060e000006b
:102d8800e0c00000c000000080c00000e0e00000db
:102d9800707000007030000030ff0000ffff00007e
:102da8000f1f00003f3800003030000038180000c6
:102db8000c0f00003f3f0000c0c00000c000000032
:102dc80000000000000000000000000000000000fb
:102dd80000000000ffff0000ff800000c0e00000ce
:102de80060600000e0e00000c0c0000000000000db
:102df800ffff0000ff0100000000000000000000cd
:102e08000000000003ff0000fffc00003f3f00003f
:102e18000f0c00001838000030300000383800006f
:102e28001e1f00000f01000000000000000000004d
:102e3800000000000000000000000000000000008a
:102e48000000000080c00000c0e00000e0e00000da
:102e5800e0e00000e0400000fcff0000ff0300008d
:102e68000100000000000000000000000000000059
:102e7800010700000f1e000038380000383000003d
:102e8800383800003818000000000000000000007a
:102e980000000000000000000000000000c000006a
:102ea800c0c0000000800000c0c00000e0e00000da
:102eb80060600000e0c0000080ff0000ffff00002d
:102ec800fcff0000ff0300000000000000000000fd
:102ed8000000000001ff0000ffff0000010f0000dc
:102ee8001f1e00003838000030300000381800007d
:102ef8000c1f00003f3f0000000000000000000021
:102f080000000000000000000000000000000000b9
:102f18000000000000800000c0e00000e060000049
:102f2800e0e00000c0c0000080000000fcff0000de
:102f3800ff33000030300000303000003031000036
:102f48003f3f00003e010000070f00001e38000050
:102f58003838000030380000383800001800000009
:102f6800000000000000000080c00000c0c0000099
:102f7800c0c00000c040000060600000ffff00000b
:102f8800ff610000606000006100000000000000b8
:102f980000ff0000ffff000000000000000000002c
:102fa80000000000000000003f3f00003f0000005c
:102fb8000000000000000000000000000000000009
:102fc80000000000000000000000000000000000f9
:102fd800000000000000000000800000c0e00000c9
:102fe8006060000060600000e0e00000e060000059
:102ff80060600000001f00003f7f0000e0e000006c
:10300800c0c00000e0e000007f7f00001f0000005b
:1030180000800000c0de00007f7f000070700000ac
:10302800707000007070000070e00000e0c00000e8
:103038000f1f00001f380000303000003030000043
:1030480030300000381800001f0f000007c00000d3
:10305800c0c00000000000000000000000000000e8
:103068000000000000000000ffff0000ff800000db
:10307800c0e0000060600000e0e00000c0c00000a8
:1030880000ff0000ffff000001000000000000003a
:103098000000000001ff0000ffff00003f3f0000ac
:1030a8003f000000000000000000000000000000d9
:1030b8003f3f00003fc00000c0c00000e3e3000045
:1030c800e3ff0000ffff00003f3f00003f0000005b
:1030d8000000000000c00000c0c0000000000000a8
:1030e80000000000e3e30000e3000000000000002f
:1030f80000ff0000ffff00000000000000000000cb
:10310800ffff0000ff38000030300000381f0000cb
:103118001f070000c0c00000c00000000000000041
:1031280000000000000000000000000000ff000098
:10313800ffff0000000000000000000080c0000049
:10314800e0e0000060000000ffff0000ff700000ea
:10315800387c0000fec7000083010000000000006a
:10316800003f00003f3f0000000000000001000099
:10317800030f00001e3c000030200000c0c000000b
:10318800c0ff0000ffff0000ffff0000ff3f00003e
:103198003f3f0000000000000000000000000000a9
:1031a8000000000000000000000000000000000017
:1031b8000000000000000000000000000000000007
:1031c80000e00000e0c0000080c00000e0600000f7
:1031d80060e00000e0c0000080000000c0c0000007
:1031e800e060000060e00000e0c00000c0000000f7
:1031f800ffff0000ff0100000000000000000000c9
:1032080000010000ffff0000ff01000000000000b7
:103218000000000000010000ffff0000ff3f000069
:103228003f3f000000000000000000000000000018
:10323800003f00003f3f00000000000000000000c9
:1032480000000000003f00003f3f000000000000b9
:103258000000000000000000000000000000000066
:103268000000000000e00000e0c0000080c0000096
:10327800e060000060e00000e0c00000c000000066
:10328800ffff0000ff010000000000000000000038
:1032980000010000ffff0000ff3f00003f3f00006b
:1032a800000000000000000000000000003f0000d7
:1032b8003f3f000000000000000000000000000088
:1032c80000000000000000000000000000000000f6
:1032d8000000000080c00000e0e000006060000026
:1032e800e0e00000c080000000000000fcff0000db
:1032f800ff030000000000000000000000000000c4
:1033080003ff0000fffc0000010700000f1e000083
:103318003838000030300000383800001e0f000038
:10332800070100000000000000000000000000008d
:103338000000000000000000000000000000000085
:10334800e0e00000c0800000c0e000006060000015
:10335800e0e00000c0c0000000000000ffff000027
:10336800ff01000000000000000000000000000055
:1033780003ff0000fffc0000ffff0000ff0c00003f
:103388001838000030300000383800001e1f0000d8
:103398000f0100003f3f00003f0000000000000058
:1033a8000000000000000000000000000000000015
:1033b8000000000000000000000000000000000005
:1033c8000000000000000000000000000080000075
:1033d800c0c00000e0e0000060600000e0c0000045
:1033e80080c00000e0e00000fcff0000ff030000d8
:1033f80000000000000000000000000001ff0000c5
:10340800ffff0000010f00001f1e000038380000f9
:1034180030300000381800000cff0000ffff0000eb
:103428000000000000000000000000000000000094
:1034380000000000003f00003f3f000000000000c7
:1034480000000000000000000000000000e0000094
:10345800e080000080c00000e0e00000e0e0000044
:10346800ffff0000ff030000010000000000000053
:10347800003f00003f3f0000000000000000000087
:103488000000000000000000000000000000000034
:10349800000000000000000080c00000c0e0000044
:1034a800e0600000e0e00000c04000000f1f0000e6
:1034b8001f38000030700000e0e00000c08000000d
:1034c800183800003830000030380000381f00007d
:1034d8001f0f0000000000000000000000000000b6
:1034e800000000000040000060f80000fefe000040
:1034f800606000006060000000000000ffff000046
:10350800ff0000000000000000000000000f0000a5
:103518001f3f000038300000303800000000000075
:103528000000000000000000000000000000000093
:103538000000000000e00000e0e0000000000000e3
:10354800000000000000000000e00000e0e00000d3
:10355800ffff0000ff000000000000000000000066
:1035680000000000ffff0000ff0700001f1f000011
:103578003838000030300000381800000c1f0000f8
:103588003f3f0000000000000000000000000000b5
:103598000000000000000000000000000000000023
:1035a80000600000e0e00000800000000000000073
:1035b800000000000000000080e00000e060000063
:1035c800000300001fff0000fce0000000000000f6
:1035d80000e00000fcff00001f03000000000000e6
:1035e80000000000000700003f3e0000303f0000e0
:1035f8001f0700000000000000000000000000009d
:1036080000000000000000000000000000000000b2
:1036180000000000000000000000000000000000a2
:10362800000000000000000000000000e0e00000d2
:10363800e0000000000000000000000000000000a2
:10364800e0e00000e0e000000000000000000000f2
:103658000000000000e00000e0e00000000f0000b3
:103668007fff0000f000000000c00000f8ff00002d
:103678001f030000011f0000fff80000c000000049
:1036880000f00000ff7f00000700000000000000bd
:10369800000700003f3e00003c3f0000070000001c
:1036a8000000000000000000000700003f3c000090
:1036b8003e3f00000700000000000000000000007e
:1036c80000000000000000000000000000000000f2
:1036d800000000000000000020600000e0e00000a2
:1036e800800000000000000000800000e0e0000012
:1036f8006020000000000000010300008ffe0000b1
:10370800f8fc0000fe8f000003010000000000002c
:10371800203000003c3f00000f03000000000000c4
:10372800030f00003f3c00003020000000000000b4
:103738000000000000000000000000000000000081
:1037480000000000000000000000000060e0000031
:10375800e080000000000000000000000000000001
:103768000000000080e00000e060000000010000b0
:103778000f3f0000fcf00000800000000080000007
:10378800f0fc00007f0f00000100000000000000b6
:103798000000000001070000bffc0000fc3f000023
:1037a8000f010000000000000000000030300000a1
:1037b80030380000381e00000f070000010000002c
:1037c80000000000000000000000000000000000f1
:1037d80000000000000000000000000000000000e1
:1037e8000000000060600000606000006060000091
:1037f80060e00000e0e000000000000000c0000001
:10380800e0f800003c1f000007030000003800003b
:103818003c3f0000373300003030000030300000fb
:103828003030000000000000000000000000000030
:103838000080000080800000000000000000000000
:10384800feff0000ff03000003010000303000000d
:1038580070f80000dfcf00008700000000000000c3
:103868000000000000000000ffff0000ff00000053
:10387800000000000000000000000000010300003c
:103888000307000007060000c0c00000ffff00009b
:10389800ffff0000ffff00003f3f000080800000a6
:1038a8008000000000000000000000000000000090
:1038b8000103000003ff0000fffe000000000000fd
:1038c800000000000000000000870000cfdf0000bb
:1038d800f8700000303000000000000000ff000019
:1038e800ffff0000000000000000000006070000c5
:1038f80007030000030100000000000000000000b2
:1039080000000000000000000000000000000000af
:10391800000000000000000000000000000000009f
:10392800000000000000000000000000000000008f
:1039380000000000000000001c0e00000e06000041
:10394800060e00000c1c00001c180000181c0000cb
:103958001c0e000000000000000000000000000035
:10396800000000000000000000000000000000004f
:10397800000000000000000000000000000000003f
:103988000000000000000000000000001c0e000005
:103998000e060000060e00000c1c00001c1800009b
:1039a800181c00001c0e0000020500001c0000008e
:1039b8008c8700000c89000008020000000000004d
:1039c80008020000100000000802000020000000ab
:1039d800080200003000000008020000400000005b
:1039e800080200005000000008020000600000000b
:1039f80008020000700000000802000080000000bb
:103a0800080200009000000008020000a00000006a
:103a180008020000b000000008020000c00000001a
:103a280008020000d000000008020000e0000000ca
:103a380008020000f0000000080200000001000079
:103a48000802000010010000080200002001000028
:103a580008020000300100000802000040010000d8
:103a68000802000050010000080200006001000088
:103a78000802000070010000080200008001000038
:103a8800080200009001000008020000a0010000e8
:103a980008020000b001000008020000c001000098
:103aa80008020000d001000008020000e001000048
:103ab80008020000f00100000802000000020000f7
:103ac80008020000100200000802000020020000a6
:103ad8000802000030020000080200004002000056
:103ae8000802000050020000080200006002000006
:103af80008020000700200000802000080020000b6
:103b0800080200009002000008020000a002000065
:103b180008020000b002000008020000c002000015
:103b280008020000d002000008020000e0020000c5
:103b380008020000f0020000080200000003000074
:103b48000802000010030000080200002003000023
:103b580008020000300300000802000040030000d3
:103b68000802000050030000080200006003000083
:103b78000802000070030000080200008003000033
:103b8800080200009003000008020000a0030000e3
:103b980008020000b003000008020000c003000093
:103ba80008020000d003000008020000e003000043
:103bb80008020000f00300000802000000040000f2
:103bc80008020000100400000802000020040000a1
:103bd8000802000030040000080200004004000051
:103be8000802000050040000080200006004000001
:103bf80008020000700400000802000080040000b1
:103c0800080200009004000008020000a004000060
:103c180008020000b004000008020000c004000010
:103c280008020000d004000008020000e0040000c0
:103c380008020000f004000008020000000500006f
:103c4800080200001005000008020000200500001e
:103c580008020000300500000802000040050000ce
:103c6800080200005005000008020000600500007e
:103c7800080200007005000008020000800500002e
:103c8800080200009005000008020000a0050000de
:103c980008020000b005000008020000c00500008e
:103ca80008020000d005000008020000e00500003e
:103cb80008020000f00500000000000000000000fd
:103cc80000000000000000000000000000000000ec
:103cd80000000000000000000000000000fc0000e0
:103ce800fc0000000000000000000000000d0000c3
:103cf8000d00000000000000000e00000e00000093
:103d0800000e00000e00000000000000000000008f
:103d1800000000000000000020fc0000fc20000063
:103d2800fcfc000020000000010f00000f01000053
:103d38000f0f00000100000070f8000088fe00006e
:103d48008898000010000000040c0000083f0000e4
:103d5800080f000007000000081c000014c800003d
:103d6800f03c00000c000000000c00000f030000f5
:103d7800040a00000e04000080d800007ce4000063
:103d8800bcd8000040000000070f0000080c00002d
:103d9800070f00000800000000000000000e0000ef
:103da8000e000000000000000000000000000000fd
:103db800000000000000000000000000f0f8000013
:103dc8000c040000000000000000000003070000d1
:103dd8000c0800000000000000000000040c0000b7
:103de800f8f000000000000000000000080c0000cf
:103df800070300000000000080a00000e0c00000f1
:103e0800e0a00000800000000002000003010000a4
:103e180003020000000000000080000080e00000b5
:103e2800e0800000800000000000000000030000a7
:103e38000300000000000000000000000000000077
:103e4800000000000000000000000000101c00003e
:103e58000c0000000000000080800000808000004e
:103e680080800000800000000000000000000000ca
:103e7800000000000000000000000000000000003a
:103e8800000000000000000000000000000c00001e
:103e98000c000000000000000000000000c000004e
:103ea800f03c00000c000000000c00000f030000b4
:103eb8000000000000000000f8fc000084c40000be
:103ec80064fc0000f8000000070f0000090800006b
:103ed800080f0000070000000010000018fc000098
:103ee800fc0000000000000000080000080f0000af
:103ef8000f08000008000000181c000004840000df
:103f0800c47c0000380000000c0e00000b09000003
:103f18000808000008000000181c000044440000c5
:103f280044fc0000b8000000060e0000080800006d
:103f3800080f00000700000080c00000603000008b
:103f480018fc0000fc000000010100000101000055
:103f5800010f00000f0000007c7c000044440000ba
:103f680044c4000084000000040c0000080800009d
:103f7800080f000007000000f0f800004c440000a3
:103f880044c4000080000000070f0000080800007b
:103f9800080f00000700000004040000048400006b
:103fa800e47c00001c000000000000000e0f000070
:103fb8000100000000000000b8fc000044440000bc
:103fc80044fc0000b8000000070f000008080000cb
:103fd800080f00000700000078fc0000848400003f
:103fe80084fc0000f8000000000800000808000039
:103ff8000c07000003000000000000000060000043
:10400800600000000000000000000000000c00003c
:104018000c0000000000000000000000006000002c
:10402800600000000000000000000000101c0000fc
:104038000c0000000000000000800000c0600000cc
:104048003018000008000000000000000103000014
:10405800060c0000080000002020000020200000be
:1040680020200000200000000101000001010000e4
:1040780001010000010000000008000018300000e5
:1040880060c0000080000000000800000c0600006e
:104098000301000000000000383c00000484000018
:1040a800c47c00003800000000000000000d000083
:1040b8000d00000000000000f8fc000004e400000f
:1040c80014fc0000f8000000070f000008090000b9
:1040d8000a0b00000b000000f8fc000084840000bc
:1040e80084fc0000f80000000f0f00000000000032
:1040f800000f00000f000000fcfc0000444400001a
:1041080044fc0000b80000000f0f00000808000081
:10411800080f000007000000f8fc0000040400007d
:10412800041c000018000000070f00000808000029
:10413800080e000006000000fcfc0000040400005b
:104148000cf80000f00000000f0f00000808000045
:104158000c07000003000000fcfc000044440000c1
:1041680044040000040000000f0f000008080000cd
:104178000808000008000000fcfc0000444400009f
:1041880044040000040000000f0f000000000000bd
:104198000000000000000000f8fc0000048400009b
:1041a800849c000098000000070f00000808000029
:1041b800080f000007000000fcfc00004040000061
:1041c80040fc0000fc0000000f0f00000000000091
:1041d800000f00000f0000000000000004fc0000b9
:1041e800fc0400000000000000000000080f0000b0
:1041f8000f0800000000000000000000000400009c
:10420800fcfc000004000000060e00000808000086
:104218000f07000000000000fcfc0000c0e00000e8
:10422800301c00000c0000000f0f0000000100000f
:10423800030e00000c000000fcfc00000000000061
:1042480000000000000000000f0f00000808000038
:104258000808000008000000fcf8000030600000ba
:1042680030f80000fc0000000f0f00000000000004
:10427800000f00000f000000fcfc000060c0000000
:1042880080fc0000fc0000000f0f00000000000090
:10429800010f00000f000000f8fc000004040000fb
:1042a80004fc0000f8000000070f000008080000e8
:1042b800080f000007000000fcfc000084840000d8
:1042c80084fc0000780000000f0f000000000000d0
:1042d8000000000000000000f8fc000004040000da
:1042e80004fc0000f8000000070f0000080c0000a4
:1042f8000c1f000017000000fcfc00008484000074
:1043080084fc0000780000000f0f0000010300008b
:10431800060c000008000000387c0000444400003f
:1043280044cc000088000000060e000008080000c9
:10433800080f0000070000000404000004fc00004f
:10434800fc0400000404000000000000000f00004e
:104358000f00000000000000fcfc0000000000004e
:1043680000fc0000fc000000070f00000808000027
:10437800080f0000070000007cfc0000800000001f
:1043880080fc00007c000000000300000f0c00000f
:104398000f03000000000000fcfc0000008000008b
:1043a80000fc0000fc0000000f07000003010000f3
:1043b800030700000f0000000c3c0000f0c00000e4
:1043c800f03c00000c0000000c0f0000030000008f
:1043d800030f00000c0000000c3c000070c000003f
:1043e800c07000003c0c000000000000000f00003e
:1043f8000f000000000000000404000084c4000056
:10440800643c00001c0000000e0f000009080000ba
:10441800080800000800000000000000fcfc000084
:104428000404000000000000000000000f0f00005e
:104438000808000000000000000c00003cf000002c
:10444800c0000000000000000000000000000000a4
:10445800030f00000c00000000000000040400002e
:10446800fcfc00000000000000000000080800003c
:104478000f0f000000000000000800000c060000fc
:10448800060c00000800000000000000000000000a
:104498000000000000000000000000000000000014
:1044a8000000000000000000202000002020000084
:1044b8002020000020000000000c00001e12000058
:1044c8001e0c0000000000000000000000000000ba
:1044d800000000000000000000a00000a0a00000f4
:1044e800a0e00000c0000000070f0000080800005e
:1044f800080f00000f000000fcfc00002020000056
:1045080020e00000c00000000f0f000008080000b5
:10451800080f000007000000c0e000002020000095
:104528002060000040000000070f0000080800009d
:10453800080c000004000000c0e00000202000007b
:1045480020fc0000fc000000070f00000808000025
:10455800080f00000f000000c0e00000202000004d
:1045680020e00000c0000000070f0000090900005b
:10457800090900000100000020200000f8fc0000ec
:104588002424000004000000000000000f0f0000b9
:104598000000000000000000c0e000002020000033
:1045a80020e00000e0000000074f0000484800003d
:1045b800487f00003f000000fcfc000020200000b5
:1045c80020e00000c00000000f0f00000000000005
:1045d800000f00000f0000000000000020ec0000a9
:1045e800ec0000000000000000000000080f0000c0
:1045f8000f0800000000000000000000000000009c
:1046080020ec0000ec0000000030000070400000ca
:10461800407f00003f000000fcfc0000008000001c
:10462800c0600000200000000f0f00000103000020
:10463800060c0000080000000000000004fc000058
:10464800fc0000000000000000000000080f00004f
:104658000f08000000000000e0e0000020e000007b
:1046680020e00000c00000000f0f0000000f000055
:10467800000f00000f000000e0e000002020000014
:1046880020e00000c00000000f0f00000000000044
:10469800000f00000f000000c0e000002020000014
:1046a80020e00000c0000000070f0000080800001c
:1046b800080f000007000000e0e0000020200000d4
:1046c80020e00000c00000007f7f00000808000014
:1046d800080f000007000000c0e0000020200000d4
:1046e80020e00000e0000000070f000008080000bc
:1046f800087f00007f000000e0e00000c0600000cc
:1047080020200000200000000f0f00000000000023
:104718000000000000000000c0e0000020200000b1
:1047280020200000200000000809000009090000fe
:10473800090f00000600000020200000fcfc00001b
:10474800202000000000000000000000070f00000b
:104758000808000008000000e0e000000000000079
:1047680000e00000e0000000070f0000080800005b
:10477800080f00000f000000e0e00000000000004b
:1047880000e00000e0000000000300000f0c000043
:104798000f03000000000000e0e0000000800000bf
:1047a80000e00000e0000000070f0000080f000014
:1047b800080f00000700000060e000008000000013
:1047c80080e00000600000000c0e00000301000003
:1047d800030e00000c000000e0e0000000000000f4
:1047e80000e00000e0000000074f0000484800001b
:1047f800487f00003f0000002020000020a00000ab
:10480800e0600000200000000c0e00000b09000012
:10481800080800000800000000400000f8bc000084
:10482800040400000000000000000000070f000062
:1048380008080000000000000000000000fc000064
:10484800fc0000000000000000000000000f000055
:104858000f000000000000000004000004bc00007d
:10486800f84000000000000000080000080f0000e9
:1048780007000000000000000c0e00000206000007
:104888000c0800000e0600000000000000000000f8
:1048980000000000000000000c0e000002060000ee
:1048a8000c0800000e0600000000000000000000d8
:1048b80000000000000000000002000008000000e6
:1048c800e09c0000609e00004d65000061730000e0
:1048d8007572000065000000436100006c6900000b
:1048e80062720000617400006500000053650000fa
:1048f80074740000696e000067730000004f0000c8
:10490800666600000051000075690000636b0000d6
:10491800004c000061730000657200000046000052
:10492800756c00006c000000556e00006974000092
:1049380073000000467500006e6300007469000093
:104948006f6e00000044000069730000706c000086
:1049580061790000004d0000657400007269000074
:1049680063000000496d0000706500007269000076
:10497800616c000000430000617200007465000073
:1049880073690000616e0000005000006f6c000049
:1049980061720000004700007261000064000000be
:1049a80044610000790000004e690000676800005b
:1049b80074000000feff000000000000000000007e
:1049c800000000000000000068a40000ffff0000d5
:1049d800ba2b00000100000070a400000a000000cb
:1049e80000000000020000007aa40000140000008b
:1049f800000000000300000083a40000ffff000087
:104a0800c02b0000040000000000000000000000af
:104a1800000000000a00000087a40000ffff00005b
:104a2800c62b00000b0000008da40000ffff000053
:104a3800d22b00000c00000093a40000ffff000030
:104a4800cc2b00000d000000000000000a00000050
:104a5800000000001400000098a400001e000000e0
:104a680000000000150000009ea4000028000000bf
:104a78000000000016000000a7a40000320000009b
:104a880000000000170000000000000014000000f3
:104a9800000000001e000000afa40000ffff00009f
:104aa800d82b00001f000000b6a40000ffff000084
:104ab800de2b000020000000000000001e000000a7
:104ac8000000000028000000bfa40000ffff000055
:104ad800e42b000029000000c9a40000ffff00002b
:104ae800ea2b00002a000000cfa40000ffff00000e
:104af800f02b00002b000000000000002800000040
:104b08000000000032000000d4a40000ffff0000f5
:104b1800f62b000033000000d8a40000ffff0000bf
:104b2800fc2b0000340000000000000032000000f0
:104b380000000000ffff000000000000ffff000071
:104b480000000000464c0000495000005f5500007e
:104b580050000000464c0000495000005f4400002f
:104b68004f5700004e000000464c0000495000001e
:104b78005f4c00004546000054000000464c000011
:104b8800495000005f5200004947000048540000a7
:104b980000530000474c00005f4300004c490000f0
:104ba800434b000000440000424c00005f430000fb
:104bb8004c490000434b0000004c00004e470000e9
:104bc8005f4300004c490000434b00000000000018
:020000040000fa
:104bd8000200fa00004f780013c0b3000e017800fd
:104be8008040eb00c0c3b300f9040700044078001c
:104bf8000080fa00000006000400fa002047980030
:104c0800314798002e429000044f78003e429000b1
:104c18001447980023c0b3000e0178008040eb00d1
:104c2800c0c3b300ea0407000042780004407800db
:104c38000080fa00000006000000fa00d0cab300a5
:104c4800e3ff0700b0c8b300e1ff07000020210020
:104c5800a107200006ee0700f1c3b30080cab30025
:104c6800e5ff070001c5b30050cdb300e2ff070020
:104c780021c1b300a0cdb300dfff0700f0cab30025
:104c8800d3ff070000cab300d1ff070000ccb30070
:104c9800cfff070000c0eb00ad0207008040eb002b
:104ca80030cdb300d4ff070060cab300c8ff0700c7
:104cb8000080fa00000006000000fa00e0cab30015
:104cc800c3ff07000080fa00000006000400fa0095
:104cd800000f7800214798002e4290008482fb0044
:104ce800346080004723dd00246080000403430013
:104cf8000480200004024300050178009e0078002b
:104d080004007800b9ef0700ae4190001e0178005a
:104d180001c4b300c0c3b300ad0407000080fa00ab
:104d2800000006000200fa00000f78001e0278005a
:104d38008442780004cbb30004c2420004407800e7
:104d4800a3ff07001e027800346088000080fa0084
:104d5800000006000200fa00000f78009e82e800ba
:104d680004012000110009008402d8000102780023
:104d7800044278000440780095ff07009e82e8000e
:104d880004012000110009008402d8000002780004
:104d98000442780070424200044078008cff07000b
:104da8001e027800246088000080fa0000000600d7
:104db8000200fa000002eb00040f78000240200015
:104dc8008000eb00008020008fef07000002eb005e
:104dd800040f78000b0037000000eb00ddff070030
:104de8001e007800cfff07000480200003c8b3002e
:104df8000401780001c4b300c0c3b3007404070001
:104e08001e0fe8001e027800e70f5200f2ff340080
:104e18000080fa00000006008e00fa002087980043
:104e2800318798004287980053879800444f99002b
:104e38000002eb00040f78003f00370064024700cf
:104e4800020820008000eb00040078006eef0700e5
:104e58002e8290001e02420004007800b1ff070075
:104e68004e4a9100e04f52001c003200e402470015
:104e78005e829000ce8190000001eb009e007800d9
:104e880005007800d4000700000278001407980095
:104e98009e0290003e829000848f520003003400ee
:104ea8000000eb00abff070005003700be82900052
:104eb8001e0290000482520004007800a5ff07003b
:104ec8001e02900004427800e40247008440780003
:104ed800050078007dff070016003700e402470050
:104ee8005e829000ce8190003e8190009e00780006
:104ef80005007800b8000700000278001407980041
:104f08003e80900093ff07001e02900084427800c4
:104f18003e8290000442780004c25200be82900093
:104f28006403470085024300844078000500780048
:104f380066ff07001e0fe8005e8290001442900092
:104f48000482fb009e0f5200bcff3c000080fa0068
:104f5800000006008a00fa0030879800014f990087
:104f680065024700020820008000eb00040078007a
:104f780025ef07000e4a9100e04f5200450032002d
:104f8800046080000400780066ff07000000eb0062
:104f980070ff07006502470001c8b30004007800ed
:104fa8004aff07000002eb00040f78002e003700cc
:104fb800046080004322dd001e0242008402e800f3
:104fc80004042000110009008402d80001027800be
:104fd800044278008440780030cdb30006ff070013
:104fe8000000eb005bff07001e02e8001500200030
:104ff800042add00044278000442e900444798008e
:105008000002eb00140798000c0037001e0278001d
:10501800be82900004824200944278004e42900082
:1050280004c26200e50247009e824200844a78007a
:105038001e0290000402e800140798009e029000e7
:10504800f4072000848f5200f0ff34006502470007
:1050580001c8b300040078001cff07006000b80016
:1050680003ed07001e0fe8001e027800e70f52004c
:10507800cfff3400046080008402e8008400200030
:10508800110009008402d800010278000460880039
:105098004a00370004608000e702420084002000d4
:1050a800110009008402d800010278000400780089
:1050b8001cff07000000eb0026ff07006502470001
:1050c80001c8b3000400780000ff07000002eb00ed
:1050d800040f78002f00370004608000c322dd0031
:1050e8001e82ea00848242000404200011000900a4
:1050f8008402d800010278000442780084407800d5
:1051080030cdb300bcfe07000000eb0011ff070024
:10511800850020001e82520015002000042add00b0
:10512800044278000442ea00444798000002eb0079
:10513800140798000c0037001e027800be82900009
:1051480004824200944278004e42900004c26200f9
:10515800e50247009e824200844a78001e029000c1
:105168000402e800140798009e029000f40720004b
:10517800848f5200f0ff34006502470001c8b30075
:1051880004007800d1fe07006000b800b8ec070002
:105198001e0fe8001e027800e70f5200ceff340011
:1051a80004608000e702420084002000110009002a
:1051b8008402d80001027800046088000000eb0037
:1051c800e4fe070001c8b3003e809000bffe070060
:1051d8000080fa00000006000e00fa002007980080
:1051e8003107980042079800530798006407980011
:1051f8003b0037000002eb00040f78006e029000bd
:10520800a40290005e029000144278000402fb00a1
:105218000402b1004222dd00048242001407980013
:105228001d0037001e029000144290008482fb008b
:105238003e029000848f5200130034004e0290000a
:10524800ae029000048342006e029000b403900006
:105258001e029000140090001e0290001442780074
:105268008482fb003e02900004aab9000402780080
:10527800840240001e027800048242000482430037
:1052880014427800044b78004e0290000402e800b3
:10529800440798001e0fe800ce029000f407200093
:1052a800848f520005003c001e02900014427800d2
:1052b8000482fb009e0f5200daff3c006e02900051
:1052c800144278000482fb00ce029000048242005f
:1052d800440798005e0290000402e8005407980012
:1052e8005e02900014427800e04f5200c1ff3a007d
:1052f8004e029000040078000080fa0000000600ca
:105308008c00fa001087980021879800328798004f
:1053180043879800244f99002e4a9100e04f52008d
:105328001f0032000002eb00040f7800160037005f
:105338000e82e800020820008000eb0004007800dc
:1053480031ee07004e829000144290000482fb0068
:105358009e0f5200070034008e82e8004e829000b3
:10536800be8190002e8190009e0078000500780094
:1053780099ff07000e82e800ae489100040078000b
:10538800f4fe07001e0fe800940020009e02520061
:105398001e829000848f5200e5ff3c002a003700ef
:1053a8004e829000144290000482fb00040fe90032
:1053b800110037000e82e800020820008000eb0090
:1053c8000400780010ee07008e82e8004e829000fc
:1053d800be8190002e8190009e0078000500780024
:1053e8007dff07000e82e800ae48910004007800b7
:1053f800d8fe07001e0fe9001e027800e00f5200d9
:10540800ecff3d000e82e800020820008000eb005f
:1054180004007800fced07000002eb00040f7800a0
:10542800050037000e82e800ae48910004007800bd
:10543800c8fe07001e0fe8001e8290009e0278003a
:10544800848f5200f7ff35000080fa000000060044
:105458008e00fa003087980041879800528798009c
:10546800434f99004e4a9100e04f520047003200e6
:105478000002eb00040f78003f0037000002eb0049
:10548800140798003400370066024700020820001d
:105498008000eb0004007800dbed07000560800069
:1054a8003e829000848242001e0290008482420064
:1054b80084002000110009008402d800010278004d
:1054c80024079800840720001e0252000403780075
:1054d8002e0290004722dd00e802420004802000ee
:1054e8008482420066024700060178008500780041
:1054f80004007800bded07001e0378001e0290002e
:105508004722dd00ce8290008482420004082000f9
:105518001e025200e6034700048243000601780099
:105528008500780004007800b0ed07002e00900098
:10553800fcfd07000000eb0006fe070066024700be
:1055480001c8b30004007800e0fd07001e029000c7
:105558000402e800140798009e0290005e82900002
:10556800848f5200c8ff35006000b800c0eb070008
:105578001e027800680f4200f40720009e0278009f
:10558800848f5200bdff34004b0037000408200010
:10559800040f7800450037000002eb00140798005c
:1055a8003a00370066024700020820008000eb003e
:1055b8000400780094ed0700056080003e829000aa
:1055c800848242001e0290008482420084002000ef
:1055d800110009008402d80001027800240798000d
:1055e8009e02780068825200040378002e02900020
:1055f800c722dd001e027800048252000508200040
:1056080084824200048020008482420084082000b2
:105618001e025200e6034700048243000601780098
:10562800850078000400780070ed07000408200069
:105638001e025200040378001e0290004722dd007b
:105648001e024200ce829000848242006602470019
:1056580006017800850078000400780063ed0700f3
:105668002e009000affd07000000eb00b9fd070019
:105678006602470001c8b3000400780093fd0700e4
:105688001e0290000402e800140798009e02900091
:105698005e829000848f5200c2ff35006000b8001f
:1056a80073eb07001e007800680f50001e02780098
:1056b800e00f5200b8ff3c000080fa00000006002e
:1056c8000400fa00204798002e429000e04f520054
:1056d8000500320010cab3003dfd070080ccb300be
:1056e8003bfd07000400370000cab30038fd07007f
:1056f80000ccb30036fd07002e40900002ecb70046
:105708000002eb00040f78000c0037000000eb00eb
:1057180090fd07001e00780082fd0700058020002c
:105728001e0278004722dd000482420001c8b3004f
:105738000400780065fd07001e0fe8001e027800cf
:10574800e70f5200f1ff34000080fa000000060065
:105758000200fa00004f78009e40780010c8b3009d
:1057680025fd07000080fa00000006000000fa008e
:105778000080fa00000006000000fa000080fa002d
:10578800000006000000fa000080fa000000060091
:105798000000fa000080fa00000006000000fa008d
:1057a8000080fa00000006000000fa000080fa00fd
:1057b800000006000000fa000080fa000000060061
:1057c8000000fa000080fa00000006000000fa005d
:1057d8000080fa00000006000000fa000080fa00cd
:1057e800000006000000fa000080fa000000060031
:1057f8000000fa000080fa00000006000000fa002d
:105808008080eb000003280006ed07008080eb0095
:10581800000328000eed0700b000200017ed070078
:1058280062e0a8000000eb0033ed07000000eb0089
:1058380037ed07000080fa000000060000a0fe0017
:105848003600f800849fbe00869fbe000000fa0064
:105858008660a900cc22a800551680000408200004
:1058680004826200e00f5200080032002504800024
:105878000410200004826200e00f5200130032007e
:105888006400200044608800100037002504800070
:105898000408200004826200e00f520003003a006e
:1058a8007400200044608800020037005400200083
:1058b800446088000000eb000fed07000000eb00db
:1058c80013ed070084e0a9008500a9000080fa0014
:1058d8004f03be004f02be003600f9000080fe00f4
:1058e800004006000400fa00100798000002eb00d0
:1058f800040f78000b0037001e027800c322dd0079
:10590800e44d2a0004824200940278001e029000ae
:10591800848f520002003a001e0278000900370006
:105928001e0fe8001e027800c322dd00e44d2a00a5
:105938000482420014027800e10f4200eeff3a00b0
:105948000082eb00040078000080fa0000000600e6
:105958000200fa00000f78001e02e9004322dd0071
:105968008482e800e44d2a00048242001402780090
:10597800e00f5200040032001e02e9000c0037005c
:105988001e0fe80001003700000000001e02e800ba
:105998004322dd008482e800e44d2a0004824200ac
:1059a80014027800e00f5200f5ff3a001e0278005a
:1059b800040078000080fa00000006000200fa00e7
:1059c800000f78001e02e8004322dd008482e80010
:1059d800e44d2a000482420014027800e00f5200cd
:1059e800020032001e02e800090037001e02e8002b
:1059f8004322dd00e4024200e44d2a000482420012
:105a08001402780004007800b6ff0700000278004e
:105a1800040078000080fa00000006002e00fa005a
:105a2800881f7800010037000000000000302500c2
:105a3800710020008eea07000e82e8008040eb002b
:105a480004007800c50207001e0a9000ae0a900004
:105a580018c0b30002002000032224000400be0086
:105a6800daea070000027800e00f520001003c006b
