:020000040000fa
:08000000aa0f0400000000003b
:020000040000fa
:020000040001f9
:0457fc00643d000008
:020000040000fa
:020000040001f9
:0457f800af090000f5
:020000040000fa
:020000040001f9
:0457f400c0fc0000f5
:020000040000fa
:020000040001f9
:0457f00023ff000093
:020000040000fa
:100008008c11000004140000081400000c140000f7
:10001800101400008c1100008c1100008c110000dd
:1000280014140000181400001c1400002014000010
:100038008c11000024140000281400002c14000067
:100048003014000034140000381400003c14000080
:1000580040140000441400008c1100008c110000b2
:10006800481400004c140000501400005414000000
:10007800581400008c1100008c1100008c11000035
:100088008c1100005c14000060140000641400006f
:10009800681400006c140000701400007414000050
:1000a800781400007c1400008c1100008c110000f2
:1000b8008c110000801400008414000088140000d3
:1000c8008c1100008c1400008c1100008c110000b1
:1000d8008c110000901400008c1100008c1100009d
:1000e8008c11000094140000981400008c1100007a
:1000f8008c1100009c140000a01400008c1100005a
:100108008c1100008c1100008c1100008c11000073
:100118008c1100008c110000a41400008c11000048
:100128008c110000a8140000ac140000b0140000ea
:100138008c1100008c1100008c1100008c11000043
:100148008c1100008c1100008c1100008c11000033
:100158008c1100008c1100008c1100008c11000023
:100168008c1100008c1100008c1100008c11000013
:100178008c1100008c110000b41400008c110000d8
:100188008c1100008c1100008c1100008c110000f3
:100198008c1100008c1100008c1100008c110000e3
:1001a8008c1100008c1100008c1100008c110000d3
:1001b8008c1100008c1100008c1100008c110000c3
:020000040000fa
:020000040000fa
:1004000012010000000200000000000000080000cf
:10041000a0a0000002000000010000000102000096
:100420000001000004030000090400003003000084
:100430005300000069000000670000006e0000002b
:10044000610000006c00000020000000310000008e
:100450003100000020000000530000006f00000089
:1004600066000000740000007700000061000000da
:100470007200000065000000200000004c00000039
:100480004c000000430000002e0000001e0300008e
:100490005500000053000000420000002000000052
:1004a000420000006f0000006f00000074000000b8
:1004b0006c0000006f00000061000000640000009c
:1004c000650000007200000009020000200000002a
:1004d0000101000002800000320900000400000059
:1004e00000020000ff0000000002000007050000fd
:1004f000810200004000000001070000050100002b
:100500000240000000010000120300004d00000046
:1005100053000000460000005400000031000000bd
:0c0520003000000030000000500000001f
:020000040000fa
:10052c000002eb00b4508800d4508800c4508800fe
:10053c008450880000000600844028002450880065
:10054c00000006000080fb00000240000402e800ee
:10055c004222dd0005a02000048242004300dd00a1
:10056c002597200005004000104390000683fb00f7
:10057c0005402800050a7300000006000080fb00ff
:10058c00000040004200dd000540280004a02000cf
:10059c00053278000000060004802c0024508800ee
:1005ac0000000600889fbe008a1f7800c4ff2f0041
:1005bc00654a2000950a62000004eb00682488005c
:1005cc00882488009404a800a804a90089002000ad
:1005dc0059248800592488005924880059248800fb
:1005ec00f40f2000542488007424880004a02000f8
:1005fc000922de00c4248800aa4a2000020220003e
:10060c00880078000a0078001d070700d40020003d
:10061c00040d78000a82e8001400a0001440a00029
:10062c001430a0001420a0001410a100b8248800dd
:10063c000004fd001eeab7001ceab7006ce9b70025
:10064c000004fd0044c0b3000002fd0074e9b700d3
:10065c007ce9b7000002fd0004a02000070009009f
:10066c00001aeb006809f800020af900840028005f
:10067c00045088006a09f800060af900295088001d
:10068c007609f8000a0af900a5972000954278002f
:10069c008582fb000480280005027200445088000b
:1006ac007809f8000e0af900b4972000144278007b
:1006bc000482fb00645088008804a80098ff07009f
:1006cc004f0578004f04be00000006001ccabf0096
:1006dc00000006000082fb004322dd000482e800db
:1006ec00e596200065007a00000006000080fb0003
:1006fc00000040000000e8004200dd0004a02000e3
:10070c00640078004f00de00000006000082fb0051
:10071c004322dd0066024200e596200065407a0027
:10072c000000d1006100600000000600881f780006
:10073c00000478000040eb00f4ff0700e04f50008d
:10074c000e003a00c496200014427800e8026200c1
:10075c000400320005802c0088827200255088002d
:10076c00030037000580280088827200255088001d
:10077c000434a200040078006ce9b7004f04780040
:10078c0000000600889fbe008a9fbe00800578008e
:10079c00010478000205780088047800e80f540002
:1007ac0001003600890020008984fb008a8f5400e8
:1007bc00010036008a04780014c0b3008a0f54007c
:1007cc00010039000042eb000400780014eab70085
:1007dc008984fb00090178008b007800504b800065
:1007ec00ae06070089854500bb508800880f550070
:1007fc00010036000805780009055500ca5088002c
:10080c006c69a80009007800c8ff07004f05be00fe
:10081c004f04be00000006001400fa00889fbe00c2
:10082c008a9fbe008c1f78008a04ab000400320043
:10083c00ea0407005bff0700140020005424880022
:10084c0004082000502480000002620003003200e3
:10085c00ac24a90004082000542488008a64ab004e
:10086c000a023200040f2000952480000502620069
:10087c009c013a009264ab009a013a00045080004b
:10088c004a22de006f426200ed4f52005d013a00d9
:10089c00484b8000184378000682fb004722de009c
:1008ac000002fd001deab7000002fd00c4508000ec
:1008bc00e00f52000700320084508000e00f52001d
:1008cc0003003200915080000040eb000400010056
:1008dc0013ff070000c6b300184260000c013a0079
:1008ec00494b800019429000e64f52004a003a00f2
:1008fc0005c8b30099cf120050003a00294090006f
:10090c000080fb00394290004822dd00040070009a
:10091c004802de00e14f52000a003a0069419000a3
:10092c000281fb00794290004822dd000401710035
:10093c0000202800104278008480fb0091ff070003
:10094c002e013700e24f520011003a00e04f5000e8
:10095c0002003200f8fe070028013700f04b80003f
:10096c00694190000281fb00794290004822dd0031
:10097c0004017100a04090008180fb003042900087
:10098c004822dd00848070007eff07001b013700c9
:10099c00e34f52001e003a00f24f40000d003a00a7
:1009ac00fc8257004628280008000900b61a780077
:1009bc00694190000281fb00794290004822dd00e1
:1009cc0004017100210120007c8057006dff07009d
:1009dc000a013700fe805700d2050700e00f5000d7
:1009ec0002003d00d4fe070004013700694190006d
:1009fc000281fb00794290004822dd000401710065
:100a0c00800078001fb097005eff0700fb003700e6
:100a1c00c9fe0700f9003700e54f520007003a0005
:100a2c0014c0b300040078001eeab70029409000ff
:100a3c001feab700d8fe0700f0003700e94f52005c
:100a4c000a003a00294490000884fb0039429000c7
:100a5c004822dd0004047400cffe07000004fd00f2
:100a6c001ceab7000004fd00e4003700e84f520018
:100a7c0009003a00694190000281fb007942900024
:100a8c004822dd000401710011002000c0a12000eb
:100a9c003cff0700d9003700e04f520033003a000a
:100aac00994278007fc262000b003a000003eb0011
:100abc0096b79f00694190000281fb00794290003b
:100acc004822dd0004017100210020007e805700c7
:100adc002cff0700c9003700e24f520021003a00fa
:100aec00c94290008582fb00594290004822dd00eb
:100afc00848272006fc26200e14f520017003e0008
:100b0c000482fb004322dd0066024200e6962000d0
:100b1c0066427a000508b200030032000402d100dc
:100b2c00614262000100370061426200c4e79f002d
:100b3c000042eb00d4e79f00694190000281fb006a
:100b4c00794290004822dd00040171002100200050
:100b5c007c8057000bff0700a800370076fe0700cb
:100b6c00a600370074fe0700a4003700eb4f5200bc
:100b7c0002003a0088fe0700a0003700ea4f52003e
:100b8c000b003a000040eb00a0e79f006941900089
:100b9c000281fb00794290004822dd0004017100c3
:100bac00110020007e805700f6fe070093003700ee
:100bbc00e14f520002003200e34f52008a003a002b
:100bcc0019437800ff426300e2cf52004e003a0016
:100bdc00a94290008582fb00394390004833dd0028
:100bec008682720048003a00c94290006fc06200d1
:100bfc00e14f500044003e0006c8b30086c26200bc
:100c0c00e34f520018003a00e0cf52000b003200c4
:100c1c000082fb004322dd004597200084824200c5
:100c2c0066024200e696200066427a000414a00098
:100c3c00844a780043fe07001e0137000082fb0047
:100c4c004322dd0045972000848242006602420068
:100c5c00e696200066427a000404a000844a7800dc
:100c6c0046fe070013013700e0cf5200120032009d
:100c7c000082fb00040342000603e8004233dd005f
:100c8c004322dd00e596200084834200574090000b
:100c9c000080fb0007a0200080337b0066834200ad
:100cac000403430066024200e5427a0054cfb300cd
:100cbc0004cb6200ff0037000082fb00840242007c
:100ccc00c22add0006a02000050343004322dd00fc
:100cdc00e4034200e596200065c07b000080fb0029
:100cec0007802800070b7000668342000403430052
:100cfc006602420065427a000424a0000404a100ac
:100d0c00044b7800eb0037000bfe07003b0037006c
:100d1c009842900004c5b30084cf520032003a00d0
:100d2c001842780005ccb300854f520010003a00f1
:100d3c00c84290008582fb00584390004833dd0088
:100d4c0086827200e48f520009003a00284090001d
:100d5c000080fb00384290004822dd000400700047
:100d6c00fe8057005b0507008000780012003700fa
:100d7c0015ccb300854f520011003a004842900048
:100d8c000482fb00d8429000c82add0005027200e4
:100d9c00e50f52000a003a00284090000080fb004a
:100dac00384290004822dd0004007000fe8057009d
:100dbc004b05070080007800e08f500002003d00da
:100dcc00ddfd07000d003700684190000281fb003b
:100ddc00784290004822dd00040171001fb097009a
:100dec0068fe07000500370008007800360207008f
:100dfc00e04f500001003d00cffd070094a4a90076
:100e0c0035003700e94f520033003200e14f5200f9
:100e1c0030003a0008a0200018447800d4a120002b
:100e2c0014427800e14f520008003a0084508000d0
:100e3c00e00f5200030032009150800010c0b3004c
:100e4c0004000100b6fd070023003700da508000d3
:100e5c00e00f550020003200cc5080008884fb004d
:100e6c008c8f5400010036008c0478008985fb00bf
:100e7c000b017800414b80000a0078000705070041
:100e8c000b054500da5088008b055600cb508800c6
:100e9c00e74f540002003600e08f55000e003a0078
:100eac00894f540009003600a3fd070084508000d0
:100ebc00e00f520003003200915080000040eb0024
:100ecc000400010096fd070003003700b2fd070087
:100edc000100370098fd07008400280004508800aa
:100eec0068003700040f200090248000000262008c
:100efc003f003a009264ab003d003200e4a12000b8
:100f0c0014427800e04f520005003200f4a120009a
:100f1c00144278000482fb00b42488001e6aef009f
:100f2c00c8508000e00f54001c0032000805780007
:100f3c00e80f5400010036008a0020008a84fb0070
:100f4c00bb508000090178008b007800504b80006a
:100f5c00d204070009045400c85088008985450054
:100f6c00bb508800e00f540009003a00e84f5500d0
:100f7c0007003a0044a1200014427800e04f5200d0
:100f8c000300320014c0b3000400780020eab7005c
:100f9c0009007800e5fd07003a00370004a22000a4
:100fac0014427800e04f5200050032000000eb00c4
:100fbc00defd0700206aef0059fd07003100370005
:100fcc00d4a1200014427800e04f52002d003a00ca
:100fdc0084508000e00f52000300320091508000da
:100fec0010c0b300040001004dfd070025003700c0
:100ffc00942480004422de006f0262004240a9006b
:10100c0020003400942480004422de006f02620031
:10101c00e10f52001b003c009264ab000d0032004b
:10102c00942480000402d1008407b20066024200be
:10103c00e596200065427a006202620011003200df
:10104c00902480004400de006f4060003dfd0700ee
:10105c000c003700942480000402d1008407b200f5
:10106c0066024200e596200065427a006102620049
:10107c0004003200902480004400de006f406000c9
:10108c003efd070084002000542488008a44ab00f5
:10109c000200320044002000542488000404200084
:1010ac007504800005026200040032008ec0a900a5
:1010bc000200370038fd070050ff37004f0678005c
:1010cc004f05be004f04be000080fa000000060071
:1010dc00889fbe000044780081047800c4a12000e1
:1010ec0014427800e04f520019003200084078009a
:1010fc0086fd0700e04f500015003a000884fb0005
:10110c004342dd0045a020008502420066024200f9
:10111c00e696200066427a000043eb009642980067
:10112c00680362000300320006802c00868a74007b
:10113c000200370006802800868a74004344dd00d4
:10114c0045972000088442000434a200044c780027
:10115c004f04be00000006000080fb004302dd00cf
:10116c00e5962000e5087a00000040004200dd0012
:10117c0004a0200064407800000006000080fb0002
:10118c00000040004200dd0004a020006400780054
:10119c004f00de000000a200000006000080fb00f3
:1011ac004302dd0066024200e596200065427a00ab
:1011bc00e40262000c00320080024000c22add0012
:1011cc0006a02000850243004303dd0064034300b6
:1011dc00e7962000e7437b008783fb0006802c000a
:1011ec00868a73000b00370080024000c22add00a3
:1011fc0006a02000850243004303dd006403430086
:10120c00e7962000e7437b008783fb0006802800dd
:10121c00868a73004300dd00459720000080420061
:10122c000424a20004487800000006000082fb00a1
:10123c004322dd0066024200e596200065407a00fc
:10124c006100600000000600889fbe008a9fbe00ff
:10125c00800478000105780002047800830578008a
:10126c00affc070088508800d9508800ca5088000d
:10127c009b5088004f05be004f04be0000000600c6
:10128c008250880093508800010178003dfd3700a2
:10129c00000006000000fe0000000600881f780019
:1012ac0000447800460307001004070044030700bd
:1012bc0008404400ad030700410307000400280068
:1012cc004510800005026200040032000b04070088
:1012dc003b03070000c0eb000300370007040700c6
:1012ec00370307000040eb004f04780000000600b5
:1012fc00e04f50000500320042802000124178007f
:10130c002181200000c8bf00380207000000060041
:10131c00889fbe00364080004740800074408000ab
:10132c0085408000504080006140800004025000e5
:10133c0085825800840f5300858f5b001c003100a0
:10134c008004eb0028042400050028009701880085
:10135c00090bbb00083b88000500fc00540520006d
:10136c00343b8800a40a2000343b880061e7a800c5
:10137c000000000000000000003b800000826200c2
:10138c00fdff3a0070408000814080000603400061
:10139c008783480052408000634080000000510069
:1013ac0081805900860f5000878f5800e7ff3e0060
:1013bc004f04be000000060014002400043b88000b
:1013cc000208f8003200f900054080000042eb00f2
:1013dc0026408000e00f5300120032000483fb0013
:1013ec008603430026812000e6837b00870abb002e
:1013fc008443e8008783fb008783430066837b007c
:10140c00868abb008582e80004c2e8008483fb0066
:10141c0026408000868f5300f0ff3900e04f5200c9
:10142c00070035000083eb0086037800860abb00ba
:10143c00878abb008582e80004c2e800fbff3b0002
:10144c000500fc0054052000343b8800a40a200051
:10145c00343b880061e7a800000000000000000099
:10146c0005002800063b800006826200fdff3a0062
:10147c0000000600e04f500001003200ceff0700d4
:10148c000000060004402100050020000401be00fd
:10149c00f40f20000300620001002000c003dd00f7
:1014ac00060020006110b8000003730081837300f4
:1014bc003640880047408800065021000700200075
:1014cc000601be000300620001002000c003dd0025
:1014dc00060020006110b8000003730081837300c4
:1014ec0076498800874988000630290007002000cb
:1014fc000601be000300620001002000c003dd00f5
:10150c00060020006110b800000373008183730093
:10151c0096498800a7498800064020000700200053
:10152c000601be000300620001002000c003dd00c4
:10153c00060020006110b800000373008183730063
:10154c00764088008740880006c02a0007002000eb
:10155c000601be000300620001002000c003dd0094
:10156c00060020006110b800000373008183730033
:10157c00564088006740880086bf2a00070020007c
:10158c000601be000300620001002000c003dd0064
:10159c00060020006110b800000373008183730003
:1015ac00364988004749880006c02a0007002000f9
:1015bc000600be00010262006123b800c032dd00eb
:1015cc00040020006103b8000602720087827200da
:1015dc005449880065498800c9c2a900c862a9009d
:1015ec00cdc2a900cc62a900f40f2e0005368000f4
:1015fc0005036200054021008682720005368800d2
:10160c0005fe2f0006368000868262002501b3009d
:10161c000536880015368000050262000530210071
:10162c008482720015368800f3032000f207200034
:10163c00f101200060c021007e020700f3ff2000b2
:10164c00f2ff2100f101200060c021008d02070093
:10165c0000c02600c12d2000d4020700f3ff20009b
:10166c00f2ff21001100210060c021009902070047
:10167c0000c02600c12d2000cc020700d9020700b3
:10168c00e2020700eb020700cdc2a800cc22a900a1
:10169c005301070044a7a8004007ab0005003a001f
:1016ac004027ab0003003a003440800045408000e6
:1016bc00044001004007a9004027a900b9fb07001e
:1016cc0055fc0700feff3700881f78008a9fbe007c
:1016dc008c9fbe000004780034c4b300984f1200f5
:1016ec007b003a001842900045c6b300854f52006b
:1016fc0007003a0006ff07008001eb00e29420008f
:10170c008300780003007800ddfe070070003700ce
:10171c0055c6b300854f520041003a006842900014
:10172c000482fb00f8429000c82add00050272001a
:10173c0000c0eb0005102000850f520023013e0075
:10174c00c84290008582fb00584090004800dd00a4
:10175c0085037800808373000003eb002840900021
:10176c000080fb00b8429000c82add000500700024
:10177c000100200000037300818373008703d100f4
:10178c000683d30006408800174088000402d1006d
:10179c002440880000c0eb003240800043408000b1
:1017ac00820f5300838f5b00080139000402430051
:1017bc00e0824b00704080008140800052408000ed
:1017cc0063408000000151008181590000c0eb0092
:1017dc00820f5200838f5a00fc003e00840f53008e
:1017ec00858f5b00f9003e00f4ef2f002181200073
:1017fc007f00090084187800e84090008180fb008d
:10180c00784290004822dd00848070008001eb005b
:10181c0002a42000208120008bfe07002c00370042
:10182c0095c6b300854f520006003a008001eb00cc
:10183c0002952000830078000300780090fe0700da
:10184c0023003700e5c6b300854f520020003a0054
:10185c00284290000482fb00b8429000c82add00a8
:10186c0005027200044088000228ef0068439000d3
:10187c000683fb00f8429000c82add0005037300c4
:10188c0000c0eb0005102000850f5300cf003e0078
:10189c000440780081fe07000042780000c0eb0095
:1018ac00e04f5200c9003a00e84090008180fb00f4
:1018bc00784290004822dd0084807000214088002e
:1018cc008001eb00e2972000208120005efe0700e3
:1018dc000040eb0034ccb300984f1200bb003a0030
:1018ec009842900064c6b30084cf520027003a009f
:1018fc0034408000454080000402420085824a004a
:10190c0094488800a5488800744080008540800079
:10191c0056408000674080000402530085825b00c3
:10192c000402420085824a00b4488800c5488800f9
:10193c0034498000454980000402420085824a00f7
:10194c00d4488800e54888005449800065498000e7
:10195c000402420085824a00f44888000549880048
:10196c0044c0b3000400780022e9b70004c4b300fb
:10197c000400780023e9b7008001eb00e29420001a
:10198c0041012000209120003dfe070018429000ec
:10199c0075c6b300854f520042003a004843900090
:1019ac000683fb00d8439000c83bdd00860278001c
:1019bc00878272000002eb00284390000683fb0034
:1019cc00b8439000c83bdd000703730007002000fc
:1019dc0006027200878272008502d1000482d30055
:1019ec00684390000683fb00f8439000c83bdd0081
:1019fc000703730006014200e0814a0000c0eb00bf
:101a0c005a4080006b4080008a0f51008b8f590028
:101a1c006e003e00820f5200838f5a006b003e0016
:101a2c0007102000870f530068003e000603d1000a
:101a3c006135b800408120000403be00f20f200085
:101a4c000800370087006100910188001688ba00f1
:101a5c009600ba0071b89f0062034300e0834b000c
:101a6c00640040000406530085865b008c0f550013
:101a7c008d8f5d00f3ff3e00e84090008180fb00fd
:101a8c00784290004822dd00848070008001eb00d9
:101a9c00e294200020812000f9fd07000040eb00bb
:101aac004a003700f5c6b300854f520022003a00b9
:101abc00284290000482fb00b8429000c82add0046
:101acc0005027200044088000228ef006841900073
:101adc000281fb00f8429000c82add00050171006c
:101aec0000c0eb0005102000850f510037003e00b0
:101afc002181200004407800660007000042780035
:101b0c0000c0eb00e04f520030003a00e84090007b
:101b1c008180fb00784290004822dd0084807000b8
:101b2c008001eb00e294200020812000d4fd07000e
:101b3c000040eb00250037000040eb0005c7b30068
:101b4c00854f520021003a00284290000482fb008d
:101b5c00b8429000c82add000502720004408800db
:101b6c000228ef00e84290008582fb007843900049
:101b7c004833dd008682720000c0eb00e18f52001a
:101b8c0012003e0004407800c4fd0700e04f5000f6
:101b9c00020032001228ef0002003700140020006f
:101bac0094408800e84090008180fb0078429000cf
:101bbc004822dd00848070008001eb00e29420005c
:101bcc0020812000aefd07000040eb004f06be0058
:101bdc004f05be004f047800000006000000060010
:101bec0051022000000028009c013700889fbe0095
:101bfc008a1f780080447800010578000244780040
:101c0c00ef000700b9010700ed00070009c0440010
:101c1c0056010700ea000700040028004510800068
:101c2c000502620003003a00e04f540005003a0040
:101c3c0012003700b1010700e100070000c0eb0003
:101c4c00110037008a0478000a0028003940780017
:101c5c0046010700da000700451080000502650008
:101c6c0004003200a5010700d500070000c0eb00fe
:101c7c00050037000844e900f4ff3a009f01070013
:101c8c00cf0007000040eb004f0578004f04be006a
:101c9c0000000600889fbe008a1f78000044780070
:101cac000105780082447800c50007008f01070009
:101cbc00c3000700084444000840e8002b0107005b
:101ccc00bf0007000980fb00420120008a00780059
:101cdc000c000700e00f50000400320087010700e1
:101cec00b700070000c0eb000300370083010700ba
:101cfc00b30007000040eb004f0578004f04be0016
:041d0c0000000600cd
:020000040000fa
:101d10000800fa0010079800210798003207980081
:101d20000002eb00040f7800270037000662a800cd
:101d3000080037009e0278003e029000848f520017
:101d4000020031001e0fe800020037001e02900062
:101d5000210037005b01070000427800e04f52008d
:101d6000f4ff32000002eb00040f78000410800042
:101d700004427800ae029000844a78002e0290005f
:101d80000402e800240798001e0290000402e90003
:101d9000140798001e029000e00f520003003a0062
:101da00006a2a8000682a8000300370006a2a90028
:101db0000682a8000000000034108000700262005b
:101dc000e00f5200fcff3a001e029000e00f5200ac
:101dd000d6ff3a000002eb00040078000080fa0011
:041de00000000600f9
:020000040000fa
:101de40091018800800078000000eb0015003700a6
:101df400e280400032a0b4009101ba00e2804000c9
:101e040032a0b4009102ba00e280400032a0b400d3
:101e14000002eb00472bde00f507b200602ce10066
:101e240004003a000059eb008301e900fdff3e0085
:101e3400040037006128e100010032000082eb0059
:101e4400040007001101ba000200e000e8ff3a00b4
:101e5400000006003159ba008301e9000c00320089
:101e64002159ba008301e900080032000400e000af
:101e740003003a00e280400032a0b400f5ff3700ce
:101e840011d9ba008301e900faff3a008100e800a1
:0c1e9400e180400032a0b4000000060015
:020000040000fa
:101ea000000800003601000000000000100a0000d9
:101eb000a2000000000000006809000016000000f9
:101ec00002000000220a2a000a00000000000000b0
:101ed00000000000000032000a720a0040400000ca
:101ee00000000000000a00001000000000000000d8
:101ef0007e09000002000000020000006482000071
:101f00003609000032000000020000000a00000054
:101f10000000010005000000002800000000000093
:101f200001040000010000000000000000000000ab
:101f3000015749004e5553004200000000000000c8
:101f40000000000000000000000000000000000091
:041f5000000000008d
:020000040000fa
:101f54008f4b21000e7f22000e018800000000003c
:101f6400000020000000e000020032000001200018
:101f7400200288000c00070000f52000010020006a
:101f840097ff0700000020000000e000020032007c
:101f94000000020000000000480a020000000000e7
:101fa4000040da000000fe004440a900600920005f
:101fb4000000e0000300320000002000a0018800bf
:081fc4004440a80000000600e3
:020000040000fa
:101fcc000000fa0000000000341080006102620082
:101fdc00e00f5200fcff3a003410800062026200f5
:101fec00e00f5200f8ff3a003410800064026200e7
:101ffc00e00f5200f4ff3a003410800068026200d7
:10200c00e00f5200f0ff3a003410800070026200c2
:10201c00e00f5200ecff3a00451080000400240051
:10202c0004826200e00f5200e7ff3a000080fa00e1
:10203c00000006000800fa00000f78001107980055
:10204c002207980033079800240d80000400a1009b
:10205c000410a1000420a100240d88002e02900081
:10206c00440d88003e029000540d88001e02900022
:10207c00340d88001e027800240d88000080fa00c0
:10208c00000006000800fa00000f78001107980005
:10209c002207980033079800840c80000400a100ec
:1020ac000410a1000420a100840c88002e029000d2
:1020bc00a40c88003e029000b40c88001e02900014
:1020cc00940c88001e027800840c88000080fa00b2
:1020dc00000006000800fa00000f780011079800b5
:1020ec002207980033079800d40c80000400a1004c
:1020fc000410a1000420a100d40c88002e02900032
:10210c00f40c88003e029000040d88001e02900022
:10211c00e40c88001e027800d40c88000080fa00c1
:04212c0000000600a9
:020000040000fa
:1021300000427800e04f520003003a0024212800ba
:102140008408780040000500e14f520003003a0087
:102150006421280084087800000305000080eb005b
:10216000e24f520003003a006424280084087800fb
:08217000e00120000000060060
:020000040000fa
:102178000200fa00004f78009e4278000582fb00ba
:1021880014108800451080000408200004826200b2
:10219800e00f52000200320000c2eb0001003700dd
:1021a8000042eb00044078000080fa0000000600be
:020000040000fa
:1021b800f03fb1000180b10006003500ee030900d0
:1021c80000000000403fb1000180b100fbff3d006e
:1021d8001000b000203fb000020035000080090068
:0821e8000000000000000600e9
:020000040000fa
:1021f0000000fa009440a900840c80000400a100b3
:102200000410a1000420a100840c88008440a900cf
:102210000080fa00000006000000fa0094c0a90047
:10222000d40c80000400a1000410a1000420a1002f
:10223000d40c880084c0a9000080fa0000000600c9
:102240000000fa009720a900240d80000400a100de
:102250000410a1000420a100240d88008720a900fb
:102260000080fa00000006000400fa00000f780069
:10227000110798001e029000241088001e027800aa
:0c228000341088000080fa000000060006
:020000040000fa
:10228c000002780002003700015a78000201e900d0
:0c229c00e00f5100fcff3a0000000600bb
:020000040000fa
:1022a8000002780002003700315a78000201e90084
:0c22b800e00f5100fcff3a00000006009f
:020000040000fa
:1022c4000000fa00441080000402d1006142620060
:0c22d400044078000080fa0000000600c2
:020000040000fa
:1022e0000494200084087800800205006493200094
:0822f00084087800a00005003d
:020000040000fa
:1022f8000000fa000602a8000080fa0000000600ac
:102308000000fa000642a8000080fa00000006005b
:020000040000fa
:082318000040da000000fe00a5
:00000001FF
